:020000040800F2
:100000004004002001010008090100080B0100085C
:100010000D0100080F010008110100080000000098
:1000200000000000000000000000000013010008B4
:100030001501000800000000170100081901000860
:100040001B0100081B0100081B0100081B01000820
:100050001B0100081B0100081B0100081B01000810
:100060001B0100081B0100081B0100081B01000800
:100070001B0100081B0100081B0100081B010008F0
:100080001B0100081B0100081B0100081B010008E0
:100090001B0100081B0100081B0100081B010008D0
:1000A0001B0100081B0100081B0100081B010008C0
:1000B0001B0100081B0100081B0100081B010008B0
:1000C0001B0100081B0100081B0100081B010008A0
:1000D0001B010008390700081B0100081B0100086C
:1000E0001B0100081B0100081B010008DFF80CD0F1
:1000F00000F026F8004800470D0B000840040020DF
:100100000648804706480047FEE7FEE7FEE7FEE7B1
:10011000FEE7FEE7FEE7FEE7FEE7FEE7D90600089A
:10012000ED00000830B504460020034600E05B1CEB
:10013000934203D2E05CCD5C401BF8D030BD0000A0
:10014000064C074D06E0E06840F0010394E8070024
:1001500098471034AC42F6D3FFF7CCFFD410000818
:10016000F4100008F0B504460D4600260027294685
:10017000204600F077FE06464FF6FF7000EA0620A4
:100180000746001260553112681C2154F0BD000072
:100190000149C860704700000020024030B50446A5
:1001A00004254FF4302000F06FF80546042D17D1D8
:1001B0000C48006940F002000A49086108464461A1
:1001C000006940F0400008614FF4302000F05CF816
:1001D00005460448006941F6FD710840014908617F
:1001E000284630BD0020024004200B49C96801F0B8
:1001F000010109B101200EE00749C96801F00401BD
:1002000009B1022007E00449C96801F0100109B1F1
:10021000032000E0042070470020024003480069EA
:1002200040F0800001490861704700000020024052
:1002300070B504460D460426F00200F025F8064687
:10024000042E11D10948006940F0010007490861F6
:100250002580F00200F018F806460448006941F6CF
:10026000FE71084001490861304670BD002002401F
:1002700002480349486003484860704723016745C6
:1002800000200240AB89EFCD00B502460423FFF702
:10029000ABFF034603E0FFF7A7FF0346521E012B07
:1002A00001D1002AF7D102B90523184600BD10B5C7
:1002B0000446012000F027FCFFF7DAFF3420FFF7A7
:1002C00067FF2046FFF76AFFFFF7A8FF002000F056
:1002D0001AFC10BD01460A6890B2704770B5054619
:1002E0000C46012000F00FFCFFF7C2FF3420FFF79F
:1002F0004FFF2846FFF752FFE1B22846FFF798FF6D
:10030000C4F30F21281DFFF793FFFFF787FF00209D
:1003100000F0F9FB70BD2DE9F041024600250026F2
:10032000002000230024002791F803C00CF00F05E3
:1003300091F803C00CF0100CBCF1000F03D091F841
:1003400002C04CEA050591F800C0BCF1000F31D0A5
:10035000146800202BE04FF0010C0CFA00F3B1F808
:1003600000C00CEA03069E4220D183004FF00F0C20
:100370000CFA03F7BC4305FA03FC4CEA040491F8B9
:1003800003C0BCF1280F06D14FF0010C0CFA00FCA1
:10039000C2F814C00AE091F803C0BCF1480F05D1BF
:1003A0004FF0010C0CFA00FCC2F810C0401C0828E9
:1003B000D1D31460B1F800C0BCF1FF0F34DD546834
:1003C00000202EE000F1080C4FF0010808FA0CF3B1
:1003D000B1F800C00CEA03069E4221D183004FF021
:1003E0000F0C0CFA03F7BC4305FA03FC4CEA0404B7
:1003F00091F803C0BCF1280F05D100F1080C08FAF0
:100400000CF8C2F8148091F803C0BCF1480F07D172
:1004100000F1080C4FF0010808FA0CF8C2F810803F
:10042000401C0828CED35460BDE8F08170B500218F
:1004300000230F22C47804B3154C246804F4E0644C
:10044000C4F5E064210AC1F10403CA40447804FA07
:1004500003F184781440214309010E4C0678A1551C
:10046000047804F01F050124AC4005786D11AD003F
:1004700005F1E025C5F8004109E0047804F01F0506
:100480000124AC40044D0678761145F8264070BD35
:100490000CED00E000E400E080E100E029B1064A54
:1004A000D2690243044BDA6104E0034AD269824311
:1004B000014BDA61704700000010024029B1064A82
:1004C00012690243044B1A6104E0034A1269824331
:1004D000014B1A61704700000010024029B1064A22
:1004E00092690243044B9A6104E0034A9269824391
:1004F000014B9A61704700000010024029B1064A82
:10050000D2680243044BDA6004E0034AD2688243B3
:10051000014BDA60704700000010024030B5002146
:100520000022002400232D4D6D6805F00C0121B13F
:10053000042905D0082923D105E0294D056022E0D2
:10054000274D05601FE0254D6D6805F47012234DA1
:100550006D6805F48034022505EB92421CB9214DEB
:10056000554305600BE01D4D6D6805F400351DB168
:100570001C4D5543056002E0194D5543056002E0EE
:10058000174D056000BF00BF144D6D6805F0F00108
:100590000909154D6B5C0568DD4045600F4D6D68C0
:1005A00005F4E061090A104D6B5C4568DD4085602B
:1005B0000A4D6D6805F46051C90A0B4D6B5C4568C6
:1005C000DD40C560054D6D6805F44041890B074D60
:1005D0006B5CC568B5FBF3F5056130BD00100240EA
:1005E00000127A0000093D000000002010000020E9
:1005F00010B500F001F810BD0CB50020019000907E
:100600003348006840F480303149086000BF30480A
:10061000006800F4003000900198401C01900098A0
:1006200018B90198B0F5A06FF1D12948006800F41D
:10063000003010B10120009001E0002000900098EF
:10064000012843D12348006840F010002149086088
:100650000846006820F0030008600846006840F083
:10066000020008601A484068194948600846406816
:1006700048600846406840F480604860084640682A
:1006800020F47C1048600846406840F4E810486058
:100690000846006840F08070086000BF0C480068A1
:1006A00000F000700028F9D00948406820F00300ED
:1006B000074948600846406840F00200486000BFB3
:1006C0000348406800F00C000828F9D10CBD000078
:1006D000001002400020024010B51348006840F0AE
:1006E00001001149086008464068104908400E4959
:1006F0004860084600680E4908400B4908600846F3
:10070000006820F4802008600846406820F4FE005D
:1007100048604FF41F008860FFF76AFF4FF00060E9
:100720000449086010BD0000001002400000FFF8FE
:10073000FFFFF6FE08ED00E010B540F225510B4832
:1007400000F081F801280FD10948007808280BDA59
:10075000064800F033F9C1B2054802780078401C21
:10076000034B18700348815410BD0000003801404D
:10077000180000202400002021B1828942F4005298
:10078000828104E082894DF6FF731A4082817047AE
:1007900010B504462048844209D101218803FFF79F
:1007A000ADFE00214FF48040FFF7A8FE32E01B4869
:1007B000844209D101214804FFF780FE00214FF453
:1007C0000030FFF77BFE25E01548844209D1012166
:1007D0008804FFF773FE00214FF48020FFF76EFEC0
:1007E00018E01048844209D10121C804FFF766FED1
:1007F00000214FF40020FFF761FE0BE00A4884421D
:1008000008D101210805FFF759FE00214FF480109F
:10081000FFF754FE10BD00000038014000440040C6
:1008200000480040004C00400050004002460020BC
:10083000B1F5007F00D100BF13880B400BB1012040
:1008400000E00020704770B5024600240023002518
:10085000002040F66A16B14200D100BFC1F3421534
:1008600001F01F03012606FA03F3012D02D1968938
:10087000334006E0022D02D1168A334001E0968A09
:1008800033400C12012606FA04F41688344013B1E2
:100890000CB1012000E0002070BDF0B5034600243B
:1008A00000260025002040F66A17B94200D100BF9B
:1008B0001846C1F3421401F01F06012707FA06F596
:1008C000012C01D10C3004E0022C01D1103000E0E9
:1008D00014301AB107682F43076002E00768AF437E
:1008E0000760F0BD2DE9F04786B005460E460024AE
:1008F000A24600BFA1460027B08900B100BF2F4625
:100900002C8A4CF6FF700440F08804432C82AC899A
:100910004EF6F3100440B0883189084371890843CA
:100920000443AC81AC8A4FF6FF400440B0890443D5
:10093000AC8201A8FFF7F2FD1F48874202D1DDF823
:1009400010A001E0DDF80CA0A88900F4004040B13F
:100950000AEBCA0000EB0A1031684900B0FBF1F85D
:1009600007E00AEBCA0000EB0A1031688900B0FB0F
:10097000F1F86420B8FBF0F004012009642101FBC8
:100980001089A88900F4004040B1322000EBC90072
:10099000B0FBF1F000F00700044308E0322000EB68
:1009A00009106421B0FBF1F000F00F0004432C812A
:1009B00006B0BDE8F0870000003801400146888895
:1009C000C0F308007047C1F308028280704700003E
:1009D00010B5044601210420FFF780FD1F48FFF7F2
:1009E000D7FE4FF400701E4908800320887018203D
:1009F000C8701C48FFF78FFC4FF4806018490880CE
:100A0000032088700420C8701648FFF784FC012179
:100A10008803FFF763FD14480460002012498880B2
:100A2000C880088188810C2048810C48FFF75AFF54
:100A300025200E490870012048708870C87008464B
:100A4000FFF7F4FC012240F225510448FFF725FF8F
:100A500001210248FFF790FE10BD00000038014060
:100A60001A00002000080140300000201E00002075
:100A700010B5044601210420FFF710FD1648FFF7CA
:100A800087FE0420154908801820C870032088704C
:100A90001348FFF740FC08201049088003208870A5
:100AA0000420C8700E48FFF736FC01214804FFF708
:100AB000F5FC0C48046000200A498880C880088141
:100AC00088810C2048810448FFF70CFF012102486F
:100AD000FFF752FE10BD0000004400401A00002045
:100AE000000801403000002002E008C8121F08C1C1
:100AF000002AFAD170477047002001E001C1121F9F
:100B0000002AFBD1704780F3108870479AB0002408
:100B100000260027A046A1460020179018901990A3
:100B2000C2A103C9CDE91501C2A103C9CDE91301D1
:100B3000C2A103C9CDE91101C2A103C9CDE90F01C9
:100B4000C24903C9CDE90D01C04A0832D2E90010FB
:100B50009268CDE90B020A91BC4A1432D2E9001026
:100B60009268CDE908020791B8492031D1E9000225
:100B70008968CDE905210490B44A2C3207CA01AB3B
:100B800007C34FF41650FFF723FF4FF4E130FFF790
:100B90006FFF4FF47A7A09E04FF47A7B01E0ABF112
:100BA000010BBBF1000FFAD1AAF1010ABAF1000F53
:100BB000F2D1AA21A648FFF706FFA6480068FFF772
:100BC00089FBC5B2FF2D00D06DB9A2480068FFF7C0
:100BD0006EFB01219F480068FFF780FB9D4800687D
:100BE000FFF778FBC5B28DF85450062115A8FFF722
:100BF000B9FA8DF84C50062115A8FFF7B3FA8DF815
:100C00004450062111A8FFF7ADFA0DE120219048CC
:100C1000FFF70CFE60B1082C09DA8D48FFF7CEFE15
:100C2000C2B22046611CCCB217A90A5400E00024CD
:100C30009DF85C00AA2811D19DF86300FF280DD112
:100C4000002600274FF000084FF000099DF85E6075
:100C50009DF85F709DF860809DF861907E480078F7
:100C60000828D2D108227D4915A8FFF75BFAE0B920
:100C70008DF828508DF82B608DF82B7005210AA86F
:100C8000FFF770FA00240DE00AA8015D7448FFF731
:100C90009AFE00BF40217248FFF7C8FD0028F9D036
:100CA000601CC4B2072CEFDBB6E008226B4913A826
:100CB000FFF738FAE0B98DF81C508DF81F808DF8D9
:100CC0002090052107A8FFF74DFA00240DE007A8A2
:100CD000015D6348FFF777FE00BF40216048FFF7E2
:100CE000A5FD0028F9D0601CC4B2072CEFDB93E00F
:100CF00008225A4911A8FFF715FA00BB8DF81050C9
:100D00008DF813608DF814708DF815808DF816909D
:100D1000072104A8FFF726FA00240DE004A8015DCE
:100D20004F48FFF750FE00BF40214D48FFF77EFDC2
:100D30000028F9D0601CC4B2092CEFDB6CE008225B
:100D400046490FA8FFF7EEF9C0B98DF80850052104
:100D500001A8FFF707FA00240DE001A8015D404853
:100D6000FFF731FE00BF40213D48FFF75FFD00283F
:100D7000F9D0601CC4B2072CEFDB4DE004223749E8
:100D80000DA8FFF7CFF9E8BB344840798DF839005A
:100D900006210DA8FFF7E6F9082230490DA8FFF754
:100DA000C1F978BB2B480068FFF781FA2B484179DD
:100DB00028480068FFF792FA26480068FFF78AFA89
:100DC00026494979884227D12448457900240DE0F5
:100DD0002248015D2248FFF7F6FD00BF4021204870
:100DE000FFF724FD0028F9D0601CC4B2082CEFDB0B
:100DF0008DF85450062115A8FFF7B4F98DF84C5022
:100E0000062100E008E015A8FFF7ACF98DF8445082
:100E1000062111A8FFF7A6F91048002101604160E2
:100E2000018100200C490870F0E600000103000079
:100E30000001840A010300010001D5CA010300007A
:100E40000002C40BFF030002000130149C0E0008D6
:100E5000004400401400002018000020240000205E
:100E60000038014070B502460C46FF25FF2309E01B
:100E700012F8010B80EA03010648405C80EA050392
:100E80000548455C201EA4F10106B4B2F0D143EA46
:100E9000052070BDD20E0008D20F0008FF06000228
:100EA000000000000103020000000000000000003C
:100EB0000103020000000000000000000103040024
:100EC0000000000000000000FF030200010000001D
:100ED000000000C1814001C0804101C0804100C1CB
:100EE000814001C0804100C1814000C1814001C0FA
:100EF000804101C0804100C1814000C1814001C0EA
:100F0000804100C1814001C0804101C0804100C1D9
:100F1000814001C0804100C1814000C1814001C0C9
:100F2000804100C1814001C0804101C0804100C1B9
:100F3000814000C1814001C0804101C0804100C1A9
:100F4000814001C0804100C1814000C1814001C099
:100F5000804101C0804100C1814000C1814001C089
:100F6000804100C1814001C0804101C0804100C179
:100F7000814000C1814001C0804101C0804100C169
:100F8000814001C0804100C1814000C1814001C059
:100F9000804100C1814001C0804101C0804100C149
:100FA000814001C0804100C1814000C1814001C039
:100FB000804101C0804100C1814000C1814001C029
:100FC000804100C1814001C0804101C0804100C119
:100FD000814000C0C101C30302C2C60607C705C5E0
:100FE000C404CC0C0DCD0FCFCE0E0ACACB0BC90951
:100FF00008C8D81819D91BDBDA1A1EDEDF1FDD1D61
:101000001CDC14D4D515D71716D6D21213D311D190
:10101000D010F03031F133F3F23236F6F737F535E0
:1010200034F43CFCFD3DFF3F3EFEFA3A3BFB39F910
:10103000F83828E8E929EB2B2AEAEE2E2FEF2DEDE0
:10104000EC2CE42425E527E7E62622E2E323E12150
:1010500020E0A06061A163A3A26266A6A767A56560
:1010600064A46CACAD6DAF6F6EAEAA6A6BAB69A9D0
:10107000A86878B8B979BB7B7ABABE7E7FBF7DBDE0
:10108000BC7CB47475B577B7B67672B2B373B17110
:1010900070B05090915193535292965657975595E0
:1010A00094549C5C5D9D5F9F9E5E5A9A9B5B995990
:1010B0005898884849894B8B8A4A4E8E8F4F8D4D60
:1010C0004C8C4484854587474686824243834181D0
:1010D00080400000F4100008000000202400000000
:1010E000E80A000818110008240000201C04000071
:1010F000F80A0008000000000102030401020304D2
:1011000006070809020406080A800008000000001B
:081110000000000000000000D7
:04000005080000ED02
:00000001FF
